:100000000C9468000C9490000C9490000C94900058
:100010000C9490000C9490000C9490000C94900020
:100020000C9490000C9490000C9490000C94900010
:100030000C9490000C9490000C9490000C94900000
:100040000C94A8050C9490000C9476050C94500523
:100050000C9490000C9490000C9490000C949000E0
:100060000C9490000C9490000000000024002700E5
:100070002A004448542046696E616C21000000004B
:1000800000250028002B00000000080002010000ED
:10009000030407000000000000000000000000232F
:1000A00000260029000404040404040404020202DB
:1000B00002020203030303030301020408102040A9
:1000C0008001020408102001020408102000F2053B
:1000D00011241FBECFEFD8E0DEBFCDBF11E0A0E0FE
:1000E000B1E0E4ECF2E102C005900D92A232B1075A
:1000F000D9F721E0A2E2B1E001C01D92AB3DB20709
:10010000E1F710E0C8E6D0E004C02197FE010E94AC
:100110005A09C736D107C9F70E943F060C946009F7
:100120000C940000CF92DF92EF92FF92CF938091D8
:10013000CE018C3009F44FC038F48B30F1F060E020
:1001400070E080EC9FE741C085518230C0F7C091DC
:10015000CA016C2F70E0762F662766277F77809123
:10016000CB01682B90E080E00E940F082DEC3CEC66
:100170004CEC5DE30E94C6084AC06091CA0170E081
:1001800090E080E00E940F086B017C01C091CB01E0
:10019000C7FF0AC0AC019B0160E070E080E89FEB04
:1001A0000E946E076B017C01CF706C2F70E090E0B5
:1001B00080E00E9411082DEC3CEC4CEC5DE30E94C9
:1001C000C608A70196010E946F07CF91FF90EF909C
:1001D000DF90CF900895C091CA016C2F70E090E03D
:1001E00080E00E940F086B017C016091CB016F7071
:1001F00070E090E080E00E9411082DEC3CEC4CECAB
:100200005DE30E94C608A70196010E946F07C7FF21
:10021000DCCF9058DACFCF92DF92EF92FF92CF935C
:10022000DF93B091CF01A0E08111AB2F8091D0017D
:1002300090E0880F991FAC0145565F4FC090D501E3
:10024000D090D601E090D701F090D80130E020E0C6
:10025000FA01C591D491E881B90190E080E0EB23E7
:10026000EA130AC02F5F3F4F6C157D058E059F0571
:1002700078F36FEF7FEFCB01DF91CF91FF90EF909D
:10028000DF90CF900895AF92BF92CF92DF92EF921E
:10029000FF920F931F93CF93DF936C017B018B0130
:1002A000040F151FEB015E01AE18BF08C017D10780
:1002B00059F06991D601ED91FC910190F081E02D0A
:1002C000C6010995892B79F7C501DF91CF911F915F
:1002D0000F91FF90EF90DF90CF90BF90AF90089577
:1002E000FC01538D448D252F30E0842F90E0821B3C
:1002F000930B541710F0CF96089501970895FC01C1
:10030000918D828D981761F0A28DAE0FBF2FB11D18
:100310005D968C91928D9F5F9F73928F90E0089570
:100320008FEF9FEF0895FC01918D828D981731F02A
:10033000828DE80FF11D858D90E008958FEF9FEF7E
:100340000895FC01918D228D892F90E0805C9F4F54
:10035000821B91098F73992708958BE291E00E9487
:10036000A10121E0892B09F420E0822F089580E08B
:1003700090E0892B29F00E94AD0181110C940000BE
:100380000895FC01A48DA80FB92FB11DA35ABF4F2A
:100390002C91848D90E001968F739927848FA68984
:1003A000B7892C93A089B1898C91837080648C93D8
:1003B000938D848D981306C00288F389E02D808187
:1003C0008F7D80830895EF92FF920F931F93CF93B9
:1003D000DF93EC0181E0888F9B8D8C8D98131AC080
:1003E000E889F989808185FF15C09FB7F894EE8967
:1003F000FF896083E889F9898081837080648083C4
:100400009FBF81E090E0DF91CF911F910F91FF900E
:10041000EF900895F62E0B8D10E00F5F1F4F0F73B6
:100420001127E02E8C8D8E110CC00FB607FCFACF71
:10043000E889F989808185FFF5CFCE010E94C1014D
:10044000F1CFEB8DEC0FFD2FF11DE35AFF4FF08242
:100450009FB7F8940B8FEA89FB8980818062CFCFA8
:10046000CF93DF93EC01888D8823B9F0AA89BB89EB
:10047000E889F9898C9185FD03C0808186FD0DC0D6
:100480000FB607FCF7CF8C9185FFF2CF808185FFF7
:10049000EDCFCE010E94C101E9CFDF91CF91089548
:1004A000CF93DF9390E0FC01E754FF4F24918B55ED
:1004B0009F4FFC0184918823D1F090E0880F991F11
:1004C000FC01E859FF4FA591B491FC01E358FF4F9F
:1004D000C591D491623071F49FB7F8943C91822F0A
:1004E000809583238C93E8812E2B28839FBFDF91F7
:1004F000CF9108958FB7F894EC912E2B2C938FBF4A
:10050000F6CF3FB7F8948091230190912401A091F8
:100510002501B091260126B5A89B05C02F3F19F0F3
:100520000196A11DB11D3FBFBA2FA92F982F882773
:10053000BC01CD01620F711D811D911D42E0660F4E
:10054000771F881F991F4A95D1F708958F929F9220
:10055000AF92BF92CF92DF92EF92FF924B015C017C
:100560000E9481026B017C010E9481026C197D094D
:100570008E099F09683E734081059105A8F321E02B
:10058000821A9108A108B10888EEC80E83E0D81E2F
:10059000E11CF11C81149104A104B10429F7FF901E
:1005A000EF90DF90CF90BF90AF909F908F90089585
:1005B0008F929F92AF92BF92EF92FF920F931F93F1
:1005C000CF93DF93CDB7DEB7C054D1400FB6F894C8
:1005D000DEBF0FBECDBF2FB7F89480912701909159
:1005E0002801A0912901B0912A012FBF4091D1018A
:1005F0005091D2016091D3017091D4018C019D0181
:10060000041B150B260B370BB901A801403D5740C1
:1006100061057105A0F48091D901C05CDE4F0FB671
:10062000F894DEBF0FBECDBFDF91CF911F910F9128
:10063000FF90EF90BF90AF909F908F900895809320
:10064000D1019093D201A093D301B093D401109221
:10065000CC011092CB011092CA011092C9011092E4
:10066000C80162E08091CD010E94500261E070E01B
:1006700080E090E00E94A60261E08091CD010E949E
:1006800050028091CD0190E0FC01E957FF4F249189
:10069000FC01E754FF4F3491FC01EB55FF4FE4910F
:1006A000EE23D9F0222359F0233009F44BC008F08F
:1006B0003EC0213009F44CC0223009F44DC0F0E0B6
:1006C000EE0FFF1FE358FF4FA591B4918FB7F89439
:1006D000EC9130953E233C938FBF8091CE018551A4
:1006E000823008F046C08BE291E10197F1F762E0B9
:1006F0008091CD010E9450028091DA0190E0823019
:10070000910538F0880F991F880F991F0597019759
:10071000F1F7F89480E00E940B016F3F7F4F8F4FFD
:100720009F4F71F51092D901789480E076CF2730F1
:10073000B1F02830D1F0243009F0C1CF8091800091
:100740008F7D03C0809180008F7780938000B7CF2A
:1007500084B58F7784BDB3CF84B58F7DFBCF809177
:10076000B0008F778093B000AACF8091B0008F7DCA
:10077000F9CF64E170E080E090E00E94A602B7CF7C
:1007800081E00E940B016F3F7F4F8F4F9F4F51F2CF
:10079000CE0101967C015E019FEBA91A9EEFB90A7A
:1007A000870180E00E940B01F801608371838283DE
:1007B000938381E00E940B01F80164837583868333
:1007C0009783085F1F4FA016B10659F7789430E061
:1007D00020E0F70180809180A280B3804481558120
:1007E00066817781FFEF8F169F06AF06BF0631F057
:1007F0004F3F0FEF50076007700719F41092D901AF
:1008000094CFF90183E0F595E7958A95E1F7E853F0
:10081000FE4F8081880F84169506A606B70618F14C
:1008200080832F5F3F4F18E0E10EF11C2832310525
:1008300081F64091CC012091C8018091C901280F17
:100840003327331F8091CA01280F311D8091CB01BE
:10085000820F932F911D99274817190679F681E089
:100860008093D901DACE8160DBCFFC0101900020BA
:10087000E9F73197AF01481B590BBC018BE291E0BE
:100880000C9443018F929F92AF92BF920F931F934C
:10089000CF93DF93CDB7DEB7A1970FB6F894DEBF45
:1008A0000FBECDBF19A2423008F44AE08E010F5DA1
:1008B0001F4F842E912CB12CA12CA50194010E94D4
:1008C0003809E62FB901CA01EA30F4F4E05DD80135
:1008D000EE938D01232B242B252B79F790E080E0DC
:1008E000109719F0CD010E943504A1960FB6F89427
:1008F000DEBF0FBECDBFDF91CF911F910F91BF9093
:10090000AF909F908F900895E95CE1CF4F925F92F6
:100910006F927F928F929F92AF92BF92CF92DF920F
:10092000EF92FF926B017C01AC019B010E943309A5
:100930008823C1F082E191E00E9435047C018EE1C0
:1009400091E00E9435048E0D9F1DFF90EF90DF9087
:10095000CF90BF90AF909F908F907F906F905F905F
:100960004F90089546015701E894B7F82FEF3FEFF5
:100970004FE75FE7C501B4010E94330981110DC043
:100980002FEF3FEF4FE75FE7C501B4010E94DB07A0
:1009900018161CF486E191E0CFCF2FEF3FEF4FE721
:1009A0005FE4C701B6010E94C10818161CF48AE171
:1009B00091E0C2CF2FEF3FEF4FE75FECC701B601E9
:1009C0000E94DB0787FDF3CF20E030E0A901C701DB
:1009D000B6010E94DB07B12CA12C87FF0AC06DE293
:1009E0008BE291E00E94E3015C01F7FAF094F7F8E2
:1009F000F0942AE037ED43EA5BE3C701B6010E94B9
:100A00006F072B013C010E94E0076B017C010E94F3
:100A10000F089B01AC01C301B2010E946E072B01BC
:100A20003C014AE0C701B6010E9442047C01EA0C85
:100A3000FB1C6EE28BE291E00E94E301E80EF91EDE
:100A400020E030E040E251E4C301B2010E94C60858
:100A50002B013C010E94E0074B01B12CA12C4AE084
:100A6000C501B4010E944204E80EF91EC501B4019B
:100A70000E940F089B01AC01C301B2010E946E07E6
:100A800020E030E040E251E40E94C6080E94E00706
:100A900090E080E04AE00E944204E80EF91E4FCF49
:100AA0001F920F920FB60F9211242F933F934F93E3
:100AB0005F936F937F938F939F93AF93BF93EF93C6
:100AC000FF938BE291E00E94C101FF91EF91BF91F2
:100AD000AF919F918F917F916F915F914F913F91D6
:100AE0002F910F900FBE0F901F9018951F920F928D
:100AF0000FB60F9211242F938F939F93EF93FF9331
:100B0000E0913B01F0913C018081E0914101F09145
:100B1000420182FD1BC09081809144018F5F8F73E1
:100B200020914501821741F0E0914401F0E0E55D3C
:100B3000FE4F958F80934401FF91EF919F918F918C
:100B40002F910F900FBE0F901F9018958081F4CFBA
:100B50001F920F920FB60F9211242F933F938F93F2
:100B60009F93AF93BF938091270190912801A0910B
:100B70002901B0912A013091220123E0230F2D3762
:100B800058F50196A11DB11D2093220180932701E4
:100B900090932801A0932901B0932A018091230109
:100BA00090912401A0912501B09126010196A11DEB
:100BB000B11D8093230190932401A0932501B0934C
:100BC0002601BF91AF919F918F913F912F910F90EF
:100BD0000FBE0F901F90189526E8230F0296A11DB7
:100BE000B11DD2CFEBE2F1E01382128288EE93E0E6
:100BF000A0E0B0E084839583A683B78384E091E08E
:100C00009183808385EC90E09587848784EC90E0E5
:100C10009787868780EC90E0918B808B81EC90E0C9
:100C2000938B828B82EC90E0958B848B86EC90E0AA
:100C3000978B868B118E128E138E148EA8ECB1E0DA
:100C400082E015968C9315978BE016968C931697E9
:100C5000EBEBF0E0E4911796EC931797E7EAF0E0FE
:100C6000E4911896EC93189740E85EE360E070E03A
:100C70001D964D935D936D937C9350970895789452
:100C800084B5826084BD84B5816084BD85B5826091
:100C900085BD85B5816085BD80916E008160809342
:100CA0006E001092810080918100826080938100AB
:100CB00080918100816080938100809180008160BB
:100CC000809380008091B10084608093B100809116
:100CD000B00081608093B00080917A00846080933E
:100CE0007A0080917A00826080937A0080917A0005
:100CF000816080937A0080917A00806880937A0086
:100D00001092C100E0913B01F0913C0182E08083B0
:100D1000E0913701F09138011082E0913901F091B2
:100D20003A018FEC808310924301E0913F01F091F2
:100D3000400186E08083E0913D01F0913E01808199
:100D400080618083E0913D01F0913E018081886067
:100D50008083E0913D01F0913E0180818068808335
:100D6000E0913D01F0913E0180818F7D8083C2E75B
:100D7000D0E0FE016491662339F08BE291E00E949D
:100D8000E3012196892BA9F78EE191E00E943504B9
:100D900062E08091CD010E9450022FB7F8948091BB
:100DA000270190912801A0912901B0912A012FBF1C
:100DB000805D9740A109B1098093D1019093D20140
:100DC000A093D301B093D40187E38093DA01C0E00C
:100DD000D0E064EF71E080E090E00E94A6020E9403
:100DE000D802882351F08091CE018B3030F08D30C5
:100DF00058F08551823008F458C0C12CD12C20EC19
:100E0000E22E2FE7F22E1EC06091C90170E090E043
:100E100080E00E9411082DEC3CEC4CEC5DE30E945C
:100E2000C6086B017C016091C80170E090E080E031
:100E30000E9411089B01AC01C701B6010E946F0717
:100E40006B017C010E94D802812C912C90ECA92E80
:100E50009FE7B92E882321F00E9492004B015C018C
:100E60000E94D802882399F10E9492002B013C0134
:100E7000C501B4010E948604C701B6010E94860420
:100E800020E030E040E85FE3C301B2010E946E075A
:100E90000E948604209709F49CCF0E94AD0188230C
:100EA00009F497CF0E94000094CF6091C80170911F
:100EB000C90176276727762790E080E00E940F0817
:100EC0002DEC3CEC4CEC5DE30E94C608B9CF412C04
:100ED000512C80EC682E8FE7782ECACF5058BB2754
:100EE000AA270E9486070C9487080E94790838F088
:100EF0000E94800820F039F49F3F19F426F40C94E6
:100F000076080EF4E095E7FB0C947008E92F0E9438
:100F1000980858F3BA17620773078407950720F0FB
:100F200079F4A6F50C94BA080EF4E0950B2EBA2FBE
:100F3000A02D0B01B90190010C01CA01A0011124DF
:100F4000FF27591B99F0593F50F4503E68F11A168B
:100F5000F040A22F232F342F4427585FF3CF46951C
:100F600037952795A795F0405395C9F77EF41F163E
:100F7000BA0B620B730B840BBAF09150A1F0FF0F08
:100F8000BB1F661F771F881FC2F70EC0BA0F621FF4
:100F9000731F841F48F4879577956795B795F795E4
:100FA0009E3F08F0B0CF9395880F08F09927EE0F79
:100FB0009795879508950E944C0808F481E008955C
:100FC0000E94A00888F09F5798F0B92F9927B75131
:100FD000B0F0E1F0660F771F881F991F1AF0BA95DD
:100FE000C9F714C0B13091F00E94BA08B1E0089579
:100FF0000C94BA08672F782F8827B85F39F0B93F6B
:10100000CCF3869577956795B395D9F73EF490958F
:101010008095709561957F4F8F4F9F4F0895E8940D
:1010200009C097FB3EF490958095709561957F4F30
:101030008F4F9F4F9923A9F0F92F96E9BB279395DE
:10104000F695879577956795B795F111F8CFFAF4EE
:10105000BB0F11F460FF1BC06F5F7F4F8F4F9F4F1F
:1010600016C0882311F096E911C0772321F09EE87D
:10107000872F762F05C0662371F096E8862F70E0E3
:1010800060E02AF09A95660F771F881FDAF7880FBD
:101090009695879597F90895990F0008550FAA0B13
:1010A000E0E8FEEF16161706E807F907C0F012167B
:1010B0001306E407F50798F0621B730B840B950B7E
:1010C00039F40A2661F0232B242B252B21F40895D3
:1010D0000A2609F4A140A6958FEF811D811D089570
:1010E00097F99F6780E870E060E008959FEF80ECDB
:1010F000089500240A94161617061806090608957E
:1011000000240A9412161306140605060895092EE3
:101110000394000C11F4882352F0BB0F40F4BF2B52
:1011200011F460FF04C06F5F7F4F8F4F9F4F089592
:1011300057FD9058440F551F59F05F3F71F0479588
:10114000880F97FB991F61F09F3F79F0879508956D
:10115000121613061406551FF2CF4695F1DF08C08C
:10116000161617061806991FF1CF869571056105A9
:1011700008940895E894BB2766277727CB0197F951
:1011800008950E944C0808F48FEF08950E94D90832
:101190000C9487080E94790838F00E94800820F09B
:1011A000952311F00C9470080C94760811240C947B
:1011B000BB080E94980870F3959FC1F3950F50E00B
:1011C000551F629FF001729FBB27F00DB11D639FF9
:1011D000AA27F00DB11DAA1F649F6627B00DA11D9F
:1011E000661F829F2227B00DA11D621F739FB00D45
:1011F000A11D621F839FA00D611D221F749F3327B5
:10120000A00D611D231F849F600D211D822F762F4D
:101210006A2F11249F5750409AF0F1F088234AF02A
:10122000EE0FFF1FBB1F661F771F881F9150504096
:10123000A9F79E3F510580F00C9470080C94BB08F0
:101240005F3FE4F3983ED4F3869577956795B7951D
:10125000F795E7959F5FC1F7FE2B880F911D969537
:10126000879597F908950E944C08880B990B08956B
:10127000A1E21A2EAA1BBB1BFD010DC0AA1FBB1F9A
:10128000EE1FFF1FA217B307E407F50720F0A21B0C
:10129000B30BE40BF50B661F771F881F991F1A9479
:1012A00069F760957095809590959B01AC01BD01A3
:1012B000CF010895EE0FFF1F0590F491E02D0994E2
:0412C000F894FFCFD0
:1012C40000000000E301430170013002A1017F012D
:1012D40093016E616E00696E66006F7666000D0A9A
:0212E400000008
:00000001FF
